{
  "contractName": "AgriTrace",
  "abi": [
    {
      "anonymous": false,
      "inputs": [
        {
          "indexed": false,
          "internalType": "string",
          "name": "productId",
          "type": "string"
        },
        {
          "indexed": false,
          "internalType": "string",
          "name": "name",
          "type": "string"
        },
        {
          "indexed": false,
          "internalType": "address",
          "name": "owner",
          "type": "address"
        }
      ],
      "name": "ProductRegistered",
      "type": "event"
    },
    {
      "anonymous": false,
      "inputs": [
        {
          "indexed": false,
          "internalType": "string",
          "name": "productId",
          "type": "string"
        },
        {
          "indexed": false,
          "internalType": "enum AgriTrace.StageType",
          "name": "stageType",
          "type": "uint8"
        },
        {
          "indexed": false,
          "internalType": "string",
          "name": "data",
          "type": "string"
        }
      ],
      "name": "StageAdded",
      "type": "event"
    },
    {
      "inputs": [
        {
          "internalType": "string",
          "name": "productId",
          "type": "string"
        },
        {
          "internalType": "string",
          "name": "name",
          "type": "string"
        }
      ],
      "name": "registerProduct",
      "outputs": [],
      "stateMutability": "nonpayable",
      "type": "function"
    },
    {
      "inputs": [
        {
          "internalType": "string",
          "name": "productId",
          "type": "string"
        },
        {
          "internalType": "enum AgriTrace.StageType",
          "name": "stageType",
          "type": "uint8"
        },
        {
          "internalType": "string",
          "name": "data",
          "type": "string"
        }
      ],
      "name": "addStage",
      "outputs": [],
      "stateMutability": "nonpayable",
      "type": "function"
    },
    {
      "inputs": [
        {
          "internalType": "string",
          "name": "productId",
          "type": "string"
        }
      ],
      "name": "getProductHistory",
      "outputs": [
        {
          "components": [
            {
              "internalType": "enum AgriTrace.StageType",
              "name": "stageType",
              "type": "uint8"
            },
            {
              "internalType": "string",
              "name": "data",
              "type": "string"
            },
            {
              "internalType": "uint256",
              "name": "timestamp",
              "type": "uint256"
            }
          ],
          "internalType": "struct AgriTrace.Stage[]",
          "name": "",
          "type": "tuple[]"
        }
      ],
      "stateMutability": "view",
      "type": "function"
    },
    {
      "inputs": [
        {
          "internalType": "string",
          "name": "productId",
          "type": "string"
        }
      ],
      "name": "getProduct",
      "outputs": [
        {
          "internalType": "string",
          "name": "name",
          "type": "string"
        },
        {
          "internalType": "address",
          "name": "owner",
          "type": "address"
        },
        {
          "internalType": "uint256",
          "name": "stageCount",
          "type": "uint256"
        }
      ],
      "stateMutability": "view",
      "type": "function"
    }
  ],
  "bytecode": "0x6080604052348015600e575f5ffd5b506111978061001c5f395ff3fe608060405234801561000f575f5ffd5b506004361061004a575f3560e01c806368111cce1461004e57806384ad5b99146100805780638fbd0dcf1461009c578063d4f50453146100b8575b5f5ffd5b6100686004803603810190610063919061082b565b6100e8565b60405161007793929190610929565b60405180910390f35b61009a60048036038101906100959190610988565b6101d3565b005b6100b660048036038101906100b19190610a10565b61042f565b005b6100d260048036038101906100cd919061082b565b61058f565b6040516100df9190610c58565b60405180910390f35b60605f5f5f5f856040516100fc9190610cb2565b90815260200160405180910390209050805f01816001015f9054906101000a900473ffffffffffffffffffffffffffffffffffffffff16826002018054905082805461014790610cf5565b80601f016020809104026020016040519081016040528092919081815260200182805461017390610cf5565b80156101be5780601f10610195576101008083540402835291602001916101be565b820191905f5260205f20905b8154815290600101906020018083116101a157829003601f168201915b50505050509250935093509350509193909250565b5f73ffffffffffffffffffffffffffffffffffffffff165f846040516101f99190610cb2565b90815260200160405180910390206001015f9054906101000a900473ffffffffffffffffffffffffffffffffffffffff1673ffffffffffffffffffffffffffffffffffffffff1603610280576040517f08c379a000000000000000000000000000000000000000000000000000000000815260040161027790610d6f565b60405180910390fd5b3373ffffffffffffffffffffffffffffffffffffffff165f846040516102a69190610cb2565b90815260200160405180910390206001015f9054906101000a900473ffffffffffffffffffffffffffffffffffffffff1673ffffffffffffffffffffffffffffffffffffffff161461032d576040517f08c379a000000000000000000000000000000000000000000000000000000000815260040161032490610dd7565b60405180910390fd5b5f8360405161033c9190610cb2565b9081526020016040518091039020600201604051806060016040528084600481111561036b5761036a610aaf565b5b815260200183815260200142815250908060018154018082558091505060019003905f5260205f2090600302015f909190919091505f820151815f015f6101000a81548160ff021916908360048111156103c8576103c7610aaf565b5b021790555060208201518160010190816103e29190610f95565b506040820151816002015550507f49a8fe01df53e3cd0357cd481988e694ece45e93442de995b34375c5a409ed2383838360405161042293929190611073565b60405180910390a1505050565b5f73ffffffffffffffffffffffffffffffffffffffff165f836040516104559190610cb2565b90815260200160405180910390206001015f9054906101000a900473ffffffffffffffffffffffffffffffffffffffff1673ffffffffffffffffffffffffffffffffffffffff16146104dc576040517f08c379a00000000000000000000000000000000000000000000000000000000081526004016104d390611100565b60405180910390fd5b5f5f836040516104ec9190610cb2565b9081526020016040518091039020905081815f01908161050c9190610f95565b5033816001015f6101000a81548173ffffffffffffffffffffffffffffffffffffffff021916908373ffffffffffffffffffffffffffffffffffffffff1602179055507fdc62d3d2ce3bcf04d8c0c001c3d1b9b793bc83b6a8d7de0cb99d77b4504cb5af8383336040516105829392919061111e565b60405180910390a1505050565b60605f826040516105a09190610cb2565b9081526020016040518091039020600201805480602002602001604051908101604052809291908181526020015f905b828210156106d3578382905f5260205f2090600302016040518060600160405290815f82015f9054906101000a900460ff16600481111561061457610613610aaf565b5b600481111561062657610625610aaf565b5b815260200160018201805461063a90610cf5565b80601f016020809104026020016040519081016040528092919081815260200182805461066690610cf5565b80156106b15780601f10610688576101008083540402835291602001916106b1565b820191905f5260205f20905b81548152906001019060200180831161069457829003601f168201915b50505050508152602001600282015481525050815260200190600101906105d0565b505050509050919050565b5f604051905090565b5f5ffd5b5f5ffd5b5f5ffd5b5f5ffd5b5f601f19601f8301169050919050565b7f4e487b71000000000000000000000000000000000000000000000000000000005f52604160045260245ffd5b61073d826106f7565b810181811067ffffffffffffffff8211171561075c5761075b610707565b5b80604052505050565b5f61076e6106de565b905061077a8282610734565b919050565b5f67ffffffffffffffff82111561079957610798610707565b5b6107a2826106f7565b9050602081019050919050565b828183375f83830152505050565b5f6107cf6107ca8461077f565b610765565b9050828152602081018484840111156107eb576107ea6106f3565b5b6107f68482856107af565b509392505050565b5f82601f830112610812576108116106ef565b5b81356108228482602086016107bd565b91505092915050565b5f602082840312156108405761083f6106e7565b5b5f82013567ffffffffffffffff81111561085d5761085c6106eb565b5b610869848285016107fe565b91505092915050565b5f81519050919050565b5f82825260208201905092915050565b8281835e5f83830152505050565b5f6108a482610872565b6108ae818561087c565b93506108be81856020860161088c565b6108c7816106f7565b840191505092915050565b5f73ffffffffffffffffffffffffffffffffffffffff82169050919050565b5f6108fb826108d2565b9050919050565b61090b816108f1565b82525050565b5f819050919050565b61092381610911565b82525050565b5f6060820190508181035f830152610941818661089a565b90506109506020830185610902565b61095d604083018461091a565b949350505050565b60058110610971575f5ffd5b50565b5f8135905061098281610965565b92915050565b5f5f5f6060848603121561099f5761099e6106e7565b5b5f84013567ffffffffffffffff8111156109bc576109bb6106eb565b5b6109c8868287016107fe565b93505060206109d986828701610974565b925050604084013567ffffffffffffffff8111156109fa576109f96106eb565b5b610a06868287016107fe565b9150509250925092565b5f5f60408385031215610a2657610a256106e7565b5b5f83013567ffffffffffffffff811115610a4357610a426106eb565b5b610a4f858286016107fe565b925050602083013567ffffffffffffffff811115610a7057610a6f6106eb565b5b610a7c858286016107fe565b9150509250929050565b5f81519050919050565b5f82825260208201905092915050565b5f819050602082019050919050565b7f4e487b71000000000000000000000000000000000000000000000000000000005f52602160045260245ffd5b60058110610aed57610aec610aaf565b5b50565b5f819050610afd82610adc565b919050565b5f610b0c82610af0565b9050919050565b610b1c81610b02565b82525050565b5f82825260208201905092915050565b5f610b3c82610872565b610b468185610b22565b9350610b5681856020860161088c565b610b5f816106f7565b840191505092915050565b610b7381610911565b82525050565b5f606083015f830151610b8e5f860182610b13565b5060208301518482036020860152610ba68282610b32565b9150506040830151610bbb6040860182610b6a565b508091505092915050565b5f610bd18383610b79565b905092915050565b5f602082019050919050565b5f610bef82610a86565b610bf98185610a90565b935083602082028501610c0b85610aa0565b805f5b85811015610c465784840389528151610c278582610bc6565b9450610c3283610bd9565b925060208a01995050600181019050610c0e565b50829750879550505050505092915050565b5f6020820190508181035f830152610c708184610be5565b905092915050565b5f81905092915050565b5f610c8c82610872565b610c968185610c78565b9350610ca681856020860161088c565b80840191505092915050565b5f610cbd8284610c82565b915081905092915050565b7f4e487b71000000000000000000000000000000000000000000000000000000005f52602260045260245ffd5b5f6002820490506001821680610d0c57607f821691505b602082108103610d1f57610d1e610cc8565b5b50919050565b7f50726f64756374206e6f7420666f756e640000000000000000000000000000005f82015250565b5f610d5960118361087c565b9150610d6482610d25565b602082019050919050565b5f6020820190508181035f830152610d8681610d4d565b9050919050565b7f4f6e6c79206f776e65722063616e2061646420737461676500000000000000005f82015250565b5f610dc160188361087c565b9150610dcc82610d8d565b602082019050919050565b5f6020820190508181035f830152610dee81610db5565b9050919050565b5f819050815f5260205f209050919050565b5f6020601f8301049050919050565b5f82821b905092915050565b5f60088302610e517fffffffffffffffffffffffffffffffffffffffffffffffffffffffffffffffff82610e16565b610e5b8683610e16565b95508019841693508086168417925050509392505050565b5f819050919050565b5f610e96610e91610e8c84610911565b610e73565b610911565b9050919050565b5f819050919050565b610eaf83610e7c565b610ec3610ebb82610e9d565b848454610e22565b825550505050565b5f5f905090565b610eda610ecb565b610ee5818484610ea6565b505050565b5b81811015610f0857610efd5f82610ed2565b600181019050610eeb565b5050565b601f821115610f4d57610f1e81610df5565b610f2784610e07565b81016020851015610f36578190505b610f4a610f4285610e07565b830182610eea565b50505b505050565b5f82821c905092915050565b5f610f6d5f1984600802610f52565b1980831691505092915050565b5f610f858383610f5e565b9150826002028217905092915050565b610f9e82610872565b67ffffffffffffffff811115610fb757610fb6610707565b5b610fc18254610cf5565b610fcc828285610f0c565b5f60209050601f831160018114610ffd575f8415610feb578287015190505b610ff58582610f7a565b86555061105c565b601f19841661100b86610df5565b5f5b828110156110325784890151825560018201915060208501945060208101905061100d565b8683101561104f578489015161104b601f891682610f5e565b8355505b6001600288020188555050505b505050505050565b61106d81610b02565b82525050565b5f6060820190508181035f83015261108b818661089a565b905061109a6020830185611064565b81810360408301526110ac818461089a565b9050949350505050565b7f50726f6475637420616c726561647920726567697374657265640000000000005f82015250565b5f6110ea601a8361087c565b91506110f5826110b6565b602082019050919050565b5f6020820190508181035f830152611117816110de565b9050919050565b5f6060820190508181035f830152611136818661089a565b9050818103602083015261114a818561089a565b90506111596040830184610902565b94935050505056fea2646970667358221220b580387d69c55a72598d5c14f6252e644ae61521a9b626706822769255c94f2a64736f6c634300081c0033",
  "immutableReferences": {},
  "source": "// SPDX-License-Identifier: MIT\r\npragma solidity ^0.8.0;\r\n\r\ncontract AgriTrace {\r\n    enum StageType { Planting, Harvesting, Packaging, Shipping, Distributing }\r\n\r\n    struct Stage {\r\n        StageType stageType;  // Loi cng on\r\n        string data;          // Thng tin chi tit (JSON/text m t)\r\n        uint timestamp;       // Thi gian thm\r\n    }\r\n\r\n    struct Product {\r\n        string name;          // Tn sn phm\r\n        address owner;        // Ngi ng k sn phm\r\n        Stage[] history;      // Danh sch cng on\r\n    }\r\n\r\n    // productId => Product\r\n    mapping(string => Product) private products;\r\n\r\n    /// ========== EVENTS ==========\r\n    event ProductRegistered(string productId, string name, address owner);\r\n    event StageAdded(string productId, StageType stageType, string data);\r\n\r\n    /// ========== REGISTER ==========\r\n    function registerProduct(string memory productId, string memory name) external {\r\n        require(products[productId].owner == address(0), \"Product already registered\");\r\n\r\n        Product storage newProduct = products[productId];\r\n        newProduct.name = name;\r\n        newProduct.owner = msg.sender;\r\n\r\n        emit ProductRegistered(productId, name, msg.sender);\r\n    }\r\n\r\n    /// ========== UPDATE STAGE ==========\r\n    function addStage(string memory productId, StageType stageType, string memory data) external {\r\n        require(products[productId].owner != address(0), \"Product not found\");\r\n        require(products[productId].owner == msg.sender, \"Only owner can add stage\");\r\n\r\n        products[productId].history.push(Stage({\r\n            stageType: stageType,\r\n            data: data,\r\n            timestamp: block.timestamp\r\n        }));\r\n\r\n        emit StageAdded(productId, stageType, data);\r\n    }\r\n\r\n    /// ========== GET HISTORY ==========\r\n    function getProductHistory(string memory productId) external view returns (Stage[] memory) {\r\n        return products[productId].history;\r\n    }\r\n\r\n    /// ========== GET PRODUCT INFO ==========\r\n    function getProduct(string memory productId) external view returns (\r\n        string memory name,\r\n        address owner,\r\n        uint stageCount\r\n    ) {\r\n        Product storage p = products[productId];\r\n        return (p.name, p.owner, p.history.length);\r\n    }\r\n}\r\n",
  "sourcePath": "D:\\Blockchain\\blocktrain\\blockchain\\contracts\\AgriTrace.sol",
  "compiler": {
    "name": "solc",
    "version": "0.8.28+commit.7893614a.Emscripten.clang"
  },
  "schemaVersion": "3.4.16",
  "updatedAt": "2025-06-08T08:59:36.627Z",
  "devdoc": {
    "kind": "dev",
    "methods": {},
    "version": 1
  },
  "userdoc": {
    "events": {
      "ProductRegistered(string,string,address)": {
        "notice": "========== EVENTS =========="
      }
    },
    "kind": "user",
    "methods": {
      "addStage(string,uint8,string)": {
        "notice": "========== UPDATE STAGE =========="
      },
      "getProduct(string)": {
        "notice": "========== GET PRODUCT INFO =========="
      },
      "getProductHistory(string)": {
        "notice": "========== GET HISTORY =========="
      },
      "registerProduct(string,string)": {
        "notice": "========== REGISTER =========="
      }
    },
    "version": 1
  }
}